:020000040800F2
:100000003007002001010008090100080B01000869
:100010000D0100080F010008110100080000000098
:1000200000000000000000000000000013010008B4
:100030001501000800000000170100081901000860
:100040001B0100081B0100081B0100081B01000820
:100050001B0100081B010008D10500081B01000856
:100060001B0100081B0100081B0100081B01000800
:100070001B0100081B0100081B0100081B010008F0
:100080001B0100081B0100081B0100081B010008E0
:100090001B0100081B0100081B0100081B010008D0
:1000A0001B0100081B0100081B0100081B010008C0
:1000B0001B0100081B0100081B0100081B010008B0
:1000C0001B0100081B0100081B0100081B010008A0
:1000D0001B0100081B0100081B0100081B01000890
:1000E0001B0100081B0100081B010008DFF80CD0F1
:1000F00000F04AF80048004785100008300700204B
:100100000648804706480047FEE7FEE7FEE7FEE7B1
:10011000FEE7FEE7FEE7FEE7FEE7FEE7010A00086E
:10012000ED0000082DE9F05F0546002092469B4651
:1001300088460646814640241BE0284641464746FD
:10014000224600F042F853465A46C01A914110D355
:1001500011461846224600F029F82D1A67EB0108CF
:100160004F4622460120002100F020F817EB00093D
:100170004E41201EA4F10104DFDC484631462A46E8
:100180004346BDE8F09F0000064C074D06E0E068DE
:1001900040F0010394E8070098471034AC42F6D3CE
:1001A000FFF7A8FF6811000888110008202A04DB67
:1001B000203A00FA02F1002070479140C2F120037A
:1001C00020FA03F3194390407047202A04DB203AB9
:1001D00021FA02F00021704721FA02F3D040C2F167
:1001E0002002914008431946704770B58D1810F8E9
:1001F000014B14F0030201D110F8012B231106D199
:1002000010F8013B03E010F8016B01F8016B521E7E
:10021000F9D1ABB110F8012B04F00C048A1A0C2CA4
:1002200003D0A2EB84129B1C08E010F8014BA2EB58
:100230000422F8E712F8014B01F8014B5B1EF9D5D7
:10024000A942D4D3002070BD2DE9F04F02F1A006E1
:100250008B460468316843684C407168B5684B4010
:100260008168DFF8F4E26940C568F0684FF00A0A77
:1002700045408032DEB20EEB14671EF806603F7810
:10028000C1F3072C46EA0766C5F307471EF80CC002
:100290001EF8077070463F0447EA0C273E43176973
:1002A0000EEB136C7E40CFB29CF800C01EF80770B6
:1002B000C5F3072847EA0C6CC4F3074710F8088019
:1002C000C75D3F0447EA08274CEA070C5769C4F3A7
:1002D00007288CEA0709EFB200EB116CC75D9CF8A8
:1002E00000C010F8088047EA0C67C3F3074CE4B27B
:1002F00010F80CC0C1F30741045D00EB1565C3F3B2
:100300000723415C2D781EF80300090444EA0565C3
:1003100041EA00200543D06906F07F3345404FF0A5
:10032000013000EAD61101EBC10101EB410181EA84
:10033000430300EAD3114FEA0C4C01EBC1014CEA34
:10034000082C01EB410103F07F3447EA0C0781EAF6
:100350004401D2F818C000EAD11487EA0C0704EB74
:10036000C40404EB440401F07F3C84EA4C0466407E
:100370004C4083EA060C84EA3C64714084EA3141D3
:1003800081EA362400EAD9115C4001EBC10101EB9E
:10039000410109F07F3381EA430600EAD61101EBFF
:1003A000C10101EB410106F07F3381EA430100EA1C
:1003B000D11303EBC30303EB430301F07F3C83EA58
:1003C0004C0389EA030C81EA030886EA0C0388EAF5
:1003D000336381EA0C0183EA314181EA3C2300EA7C
:1003E000D711734001EBC10101EB410107F07F36EA
:1003F00081EA460600EAD61101EBC10101EB410199
:1004000006F07F3C81EA4C0100EAD11C0CEBCC0CDD
:100410000CEB4C0C01F07F388CEA480C87EA0C0797
:1004200081EA0C0886EA070C88EA3C6C79408CEA81
:10043000314181EA3721714000EAD51606EBC60644
:1004400006EB460605F07F3786EA470700EAD7162F
:1004500006EBC60606EB460607F07F3C86EA4C062E
:1004600000EAD61000EBC00000EB400006F07F3C35
:1004700080EA4C004540704087EA050C80EA3C6009
:100480006E4080EA364080EA35257D40AAF1010AB7
:10049000103ABAF1010F7FF4EDAEDEB20EEB146745
:1004A0001EF806603F78C1F3072C46EA0767C5F3DC
:1004B00007461EF80CC01EF806607046360446EA71
:1004C0000C2637431669C5F3072C87EA0609CEB216
:1004D0000EEB13671EF806603F7810F80CC046EA72
:1004E0000766C4F30747C4F30728C75D10F8088000
:1004F0003F0447EA0C273E43576900EB116C7E40EE
:10050000EFB29CF800C0C75DE4B247EA0C6CC3F3DD
:100510000747C1F30741C75D045D3F0400EB156564
:10052000C3F30723415C2D781EF80300090447EA52
:10053000082744EA056441EA00204CEA070C04431A
:100540009769D0698CEA070C4440CBE902C4CBE937
:100550000096BDE8F08F00002C010020AFF3008072
:100560002DE9F043D0E90024D0E90230C1E902309E
:10057000164EC1E90024002506F5007906EB106748
:10058000C0F3074C3F7816F80CC000F0FF0847EAAC
:100590000C67C0F3072C16F8088016F80CC0103151
:1005A0004FEA0C4C4CEA082C47EA0C07574059F824
:1005B00025206D1C7A40544063405840C1E9023008
:1005C000C1E900240A2DD9DBBDE8F0832C0000200E
:1005D00010B5012000F01EF800280FD0322000F0E6
:1005E0002EFD0121064800F0FCF810B90549012054
:1005F0000870BDE81040012000F006B810BD0000F2
:100600000008014000000020014908607047000018
:1006100014040140064A014600201268044B0A40B7
:1006200014331B680B4202D0002A00D0012070470F
:100630000004014030B51A498379026853B30B684E
:1006400093430B600A1D13680468A3431360027987
:100650000A441368046823431360114A083213687C
:100660000468A3431360131D1C680568AC431C6039
:100670004479102C05D021440A68006802430A60BE
:1006800030BD116804682143116019680068014396
:10069000196030BD0079084401689143016030BDA4
:1006A0000004014038B5012144F2040000F000F9D3
:1006B0000821002000F030F81548012100220160D7
:1006C00002710C2242718171FFF7B4FF0324ADF86F
:1006D000004048200F4D8DF803006946284600F081
:1006E0002FF86815ADF8000018208DF803008DF87C
:1006F00002406946284600F023F82815ADF80000AE
:1007000004208DF803006946284600F019F838BD2A
:10071000040000200008014010B58A0721F00304FE
:100720000649130F21440F228C689A4094438C6031
:100730008A68984002438A6010BD000000000140B2
:10074000F0B5CA78002502F00F03D20601D58A78E9
:1007500013430A784FF00F0E12F0FF0F4FF0010213
:100760001CD004680F8802FA05F63740B74211D151
:100770004FEA850C0EFA0CF724EA070703FA0CF48B
:100780003C43CF78282F02D0482F02D002E04661A8
:1007900000E006616D1C082DE4D304600C88FF2C7A
:1007A0001ED944685FF0000606F1080702FA07F553
:1007B0000F882F40AF420FD14FEA860C0EFA0CF78C
:1007C000BC4303FA0CF73C43CF78282F00D1456196
:1007D000CF78482F00D10561761C082EE4D3446001
:1007E000F0BD0246002092680A4200D00120704706
:1007F00008B500214FF0006000F050F84FF4A06001
:1008000000F042F806208DF8000002208DF801006B
:1008100000208DF8020001208DF80300684600F0EA
:1008200001F808BD70B50F23C47801780122F4B136
:10083000144C2468457804F4E064C4F5E064240AA8
:10084000C4F10406E3408478B5401C402C4301F118
:10085000E021230181F80034007800F01F018A4074
:100860004009800000F1E020C0F8002170BD01F0D7
:100870001F0082404809800000F1E020C0F880217C
:1008800070BD00000CED00E0024908430249086019
:10089000704700000000FA050CED00E0024A11402C
:1008A000014302480160704780FFFF1F08ED00E030
:1008B000044A0029916901D0014300E0814391611C
:1008C000704700000010024030B51F494A6812F01E
:1008D0000C031E4A03D0042B01D0082B21D0026048
:1008E0004A680F231A4C03EA1212A35C0268DA402A
:1008F00042604B68072505EA1323E35C22FA03F301
:1009000083604B6805EAD323E35CDA40C260496840
:10091000032303EA9131231F595CB2FBF1F101611A
:1009200030BD4A684B6802F470124FF0020413F4B1
:10093000803F04EB924202D04B689B0301D5054BEC
:1009400000E0024B5A43CAE70010024000127A004E
:100950005802002000093D000CB5002126480191F5
:100960000091026842F4803202604FF4A063026892
:1009700002F400320092019A521C0192009A12B9BC
:10098000019A9A42F3D10268920333D50121009172
:100990001A490A6842F010020A600A6822F003024B
:1009A0000A600A6842F002020A60416841604168D8
:1009B0004160416841F480614160416821F47C11EB
:1009C0004160416841F4E8114160016841F0807183
:1009D000016001688901FCD5416821F00301416093
:1009E000416841F0020141604168C1F3810102297F
:1009F000FAD10CBD00910CBD001002400020024055
:100A00000F4810B5016841F00101016041680D4ACD
:100A10001140416001680C4A11400160016821F4F5
:100A200080210160416821F4FE0141604FF41F0103
:100A30008160FFF791FF05494FF00060086010BD2D
:100A4000001002400000FFF8FFFFF6FE08ED00E096
:100A500070B586B0054600244FF40070ADF8140060
:100A6000104EADF81040ADF81240ADF8164004A994
:100A7000304600F01CF8ADF808400C20ADF80440FA
:100A8000ADF80A000095ADF80640ADF80C40694697
:100A9000304600F02DF80121304600F017F806B07E
:100AA00070BD000000380140C9430180704710B597
:100AB000038A4FF2FF0213400A884C8822438C8835
:100AC000C9880C4322431A43028210BD0029818940
:100AD00002D041F4005101E021F4005181817047BE
:100AE0000246002012880A4200D001207047000010
:100AF00030B50446008A85B00D464CF6FF710840BB
:100B0000E98801432182A1894EF6F3100140A888AB
:100B10002A8910436A890A431043A081A08A4FF6AC
:100B2000FF410840A9890143A1826846FFF7CCFE36
:100B30001948844201D1039800E00298A189090470
:100B400000EBC00101EB0010296801D5490000E06D
:100B50008900B0FBF1F06422B0FBF2F109010B094E
:100B60006FF018056B4300EB8300A3891D044FF061
:100B7000320306D503EBC000B0FBF2F000F0070033
:100B800005E003EB0010B0FBF2F000F00F000843AB
:100B9000208105B030BD000000380140C1F30801DC
:100BA000818070470FB4054B10B503A9044A029821
:100BB00000F018F810BC5DF814FB0000611000088C
:100BC0006802002002E008C8121F08C1002AFAD1FA
:100BD00070477047002001E001C1121F002AFBD1BD
:100BE000704700002DE9FF4F8DB00F4605460026E7
:100BF00006E025280BD0DDE90F1290476D1C761C0E
:100C000028780028F5D111B03046BDE8F08F0024D7
:100C1000A246A1460122EA4900E0044315F8013F3B
:100C2000203B02FA03F00842F7D128782A2810D096
:100C30006FF02F022878A0F13001092914D80AEBAF
:100C40008A0102EB410144F0020400EB010A6D1C31
:100C5000F0E701CF5FEA000A03D544F40054CAF17B
:100C6000000A44F002046D1C28782E2817D115F8CC
:100C7000010F44F004042A280ED06FF02F022878C8
:100C8000A0F1300109290AD809EB890102EB4101E1
:100C900000EB01096D1CF2E757F8049B6D1C2878E6
:100CA0006C280FD006DC4C2817D068280DD06A2895
:100CB00014D104E0742810D07A280FD10DE044F448
:100CC00000140AE044F4801401E044F4401469780C
:100CD000814202D104F580146D1C6D1C2A786E2AA5
:100CE0001FD00CDC632A31D004DC002A8BD0582AB8
:100CF00011D19FE0642A68D0692A0CD165E0732A7B
:100D00002ED004DC6F2A73D0702A04D197E0752AA4
:100D10006FD0782A6ED01046DDE90F129047761C0E
:100D20004CE1C4F30250022806D0032809D004285D
:100D300001CF09D0066041E101CFF117C0E90061A0
:100D40003CE101CF068039E1067037E117F8040B6A
:100D50008DF8000000208DF80100EB46012003E033
:100D600057F804BB4FF0FF3061074FF0000102D489
:100D70000DE008F10101884649450FDA8045F8DBAE
:100D80001BF808100029F4D108E008F10101884699
:100D90008142FADB1BF808100029F6D1DDE90F23A8
:100DA000AAEB08008146214600F032F9304400EBFE
:100DB000080604E0DDE90F121BF8010B9047B8F1BB
:100DC0000108F7D221464846F3E00A21C4F3025352
:100DD0004FF0000B0891022B04D001CFC117032B59
:100DE00009D00AE0FF1D27F00707F7E8020108E035
:100DF0002EE01DE01EE000B2C117042B01D140B26D
:100E0000C117002907DA4FF0000CD0EB0C006CEB97
:100E100001012D2302E0230504D52B238DF8243076
:100E2000012303E0E30701D02023F7E7984656E0CB
:100E30000A210EE010204FF0000B08900CE010216A
:100E40004FF0000B44F004044FF00809089103E050
:100E500008214FF0000B0891C4F30253022B04D079
:100E600001CF0021032B06D006E0FF1D27F0070766
:100E7000F7E8020103E080B2042B00D1C0B24FF0CA
:100E8000000823072BD5702A07D0DDF820C08CF08E
:100E9000100C5CEA0B0C05D00EE040238DF82430DA
:100EA000012308E050EA010306D030238DF82430F6
:100EB0008DF8252002239846DDF820C08CF0080C20
:100EC0005CEA0B0C0BD150EA010301D1630706D594
:100ED00030238DF824304FF00108A9F10109582A78
:100EE00004D038A20B9208AA0A920BE03AA2F9E7C2
:100EF0005B46089AFFF716F90B9B9B5C0A9A521EF9
:100F00000A92137050EA0102F2D10A98ADEB000088
:100F100000F1200B600702D524F4803401E04FF08B
:100F20000109D94502DDA9EB0B0000E0002000EB30
:100F30000B0141440890AAEB010AE00306D4DDE965
:100F40000F232146504600F063F806444FF0000995
:100F500008E009A911F80900DDE90F12904709F12D
:100F60000109761CC145F4DBE0030CD5DDE90F2354
:100F70002146504600F04CF8064404E0DDE90F122B
:100F800030209047761C0899481E08900029F5DC0F
:100F900008E00A980A990078491C0A91DDE90F12C5
:100FA0009047761CBBF10001ABF1010BF1DC21464F
:100FB0005046DDE90F2300F019F806446D1C1FE6CA
:100FC000092801003031323334353637383961621F
:100FD00063646566000000003031323334353637E3
:100FE0003839414243444546000000002DE9F041B4
:100FF000044600251E461746880404D405E03946F9
:101000002020B0476D1C641EF9D52846BDE8F0814C
:101010002DE9F041044600251E469046C80301D53F
:10102000302700E02027880404D505E041463846F3
:10103000B0476D1C641EF9D52846BDE8F08100EB71
:10104000C0014FF0E0204161002181610122026175
:101050000269D30701D0D203FAD5016181617047DB
:1010600070B5074D0446C1B22846FFF797FD4021F1
:101070002846FFF735FD0028F9D0204670BD000056
:101080000038014008B5FFF7BBFCFFF70BFBFFF78B
:10109000AFFB4FF4E130FFF7DBFC1C4D402128464D
:1010A000FFF702FD1A491B48FFF75AFA194C1A4E6E
:1010B0000C3C207850B11749C86800908B684A688A
:1010C000096816A0FFF76EFD00202070022130464F
:1010D000FFF787FB0028ECD10D490E48FFF73EFAD9
:1010E0000C4A0B4902F11000B031FFF7ADF8402176
:1010F0002846FFF7D9FC0648B030C16800918368E4
:10110000426801680FA0FFF74DFDD2E700380140AB
:101110006C0200200C000020000801404B65792083
:101120006973203A3078253038782C30782530387B
:10113000782C3078253038782C3078253038780D78
:101140000A000000466C3467203173203A50435443
:10115000467B25303878253038782530387825306A
:1011600038787D0D0A00000088110008000000207A
:101170006C020000EA010008E81300086C0200207D
:10118000C4040000D40B000892000100FF00434299
:101190004140474645444B4A49484F4E4D4C750CDB
:1011A0007F5827C9BACAF170DEEAF660E41F637C93
:1011B000777BF26B6FC53001672BFED7AB76CA82A7
:1011C000C97DFA5947F0ADD4A2AF9CA472C0B7FD57
:1011D0009326363FF7CC34A5E5F171D8311504C715
:1011E00023C31896059A071280E2EB27B27509838C
:1011F0002C1A1B6E5AA0523BD6B329E32F8453D12D
:1012000000ED20FCB15B6ACBBE394A4C58CFD0EF21
:10121000AAFB434D338545F9027F503C9FA851A35B
:10122000408F929D38F5BCB6DA2110FFF3D2CD0C79
:1012300013EC5F974417C4A77E3D645D197360810A
:101240004FDC222A908846EEB814DE5E0BDBE032DB
:101250003A0A4906245CC2D3AC629195E479E7C8A6
:10126000376D8DD54EA96C56F4EA657AAE08BA781A
:10127000252E1CA6B4C6E8DD741F4BBD8B8A703EBC
:10128000B5664803F60E613557B986C100FF001DEB
:101290009EE1F8981169D98E949B1E87E9CE552856
:1012A000DF8CA1890DBFE6426841992D0FB054BB78
:1012B0001652096AD53036A538BF40A39E81F3D7B0
:1012C000FB7CE339829B2FFF87348E4344C4DEE9E5
:1012D000CB547B9432A6C2233DEE4C950B42FAC30D
:1012E0004E082EA16628D924B2765BA2496D8BD117
:1012F0002572F8F66486689816D4A45CCC5D65B651
:10130000926C704850FDEDB9DA5E154657A78D9D79
:101310008490D8AB008CBCD30AF7E45805B8B34529
:1013200006D02C1E8FCA3F0F02C1AFBD0301138A26
:101330006B3A9111414F67DCEA97F2CFCEF0B4E6F9
:101340007396AC7422E7AD3585E2F937E81C75DF9A
:101350006E47F11A711D29C5896FB7620EAA18BEB2
:101360001BFC563E4BC6D279209ADBC0FE78CD5A84
:10137000F41FDDA8338807C731B11210592780EC5C
:101380005F60517FA919B54A0D2DE57A9F18259305
:10139000C99CEFA0E03B4DAE2AF5B0C8EBBB3C8347
:1013A000539961172B047EBA77D626E169146355E9
:1013B000210C7D231A01271A022B1A042F1A083335
:1013C0001A10371A203B1A403F12800C121B0C20B7
:1013D00005360204061C2006000102030404280549
:0813E00006070809680000007F
:04000005080000ED02
:00000001FF
